:060000000A128A110E280D
:10000800FE00030EF0000408F1000A08F2000A12CC
:100018008A11002D0A128A111128F701F801F90135
:1000280083132030840042300A128A11AB250A1249
:100038008A11831790308400E2300A128A11AB25A6
:100048000A128A1183010A128A119E2A9030831299
:100058000313C7000130C8007E30C9000A128A1194
:1000680014230A128A118312031347084804031938
:100078003E283F28E72908148810D001D101903084
:10008800CC008B30CD000A128A11ED230A128A1196
:1000980083120313D200F1280130D0070318D10AC4
:1000A8000030D107023050065104031D5C285D283A
:1000B8007A285208F4005208FF39031D0130F50070
:1000C8000A128A114E250A128A1174087504031936
:1000D8006E286F287A283330F400831203135208ED
:1000E800F5000A128A118D250A128A11033083122B
:1000F800031350065104031D822883289C285208A4
:10010800F4005208FF39031D0130F5000A128A1164
:100118004E250A128A117408750403199428952823
:100128009C28831203135208840083170008A30035
:1001380004308312031350065104031DA428A52874
:10014800C2285208F4005208FF39031D0130F50097
:100158000A128A114E250A128A11740875040319A5
:10016800B628B728C2282430F40083120313520893
:10017800F5000A128A118D250A128A110530831298
:10018800031350065104031DCA28CB28E42852083B
:10019800F4005208FF39031D0130F5000A128A11D4
:1001A8004E250A128A11740875040319DC28DD2803
:1001B800E428831203135208840083170008A2005E
:1001C80083120313CC018B30CD000A128A11ED2360
:1001D8000A128A1183120313D2005208031DF5284C
:1001E800F62850285430F5008030F6000A128A119B
:1001F80028250A128A113330F4000030F5000A125B
:100208008A114E250A128A1100307502043003192A
:100218007402031C102911296F297330F5008030EE
:10022800F6000A128A1128250A128A11831203136A
:1002380033080A128A11A1250A128A11831203139C
:1002480034080A128A11A1250A128A118530F5008C
:100258008030F6000A128A1128250A128A118312A0
:10026800031335080A128A11A1250A128A1183126A
:10027800031336080A128A11A1250A128A118D3031
:10028800F5008030F6000A128A1128250A128A1110
:100298003730F5000030F6000A128A1128250A12B4
:1002A8008A118830F5008030F6000A128A11282554
:1002B8000A128A118312031323080A128A11A1252C
:1002C8000A128A113730F5008030F6000A128A11B6
:1002D80028250A128A112430F4000030F5000A1289
:1002E8008A114E250A128A11003075020530031949
:1002F8007402031C80298129E7296730F5008030C2
:10030800F6000A128A1128250A128A118312031389
:1003180024080A128A11A1250A128A1183120313CA
:1003280025080A128A11A1250A128A1183120313B9
:1003380026080A128A11A1250A128A118530F500A9
:100348008030F6000A128A1128250A128A118312AF
:10035800031327080A128A11A1250A128A11831287
:10036800031328080A128A11A1250A128A118D304E
:10037800F5008030F6000A128A1128250A128A111F
:100388002930F5000030F6000A128A1128250A12D1
:100398008A118830F5008030F6000A128A11282563
:1003A8000A128A118312031322080A128A11A1253C
:1003B8000A128A113530F5008030F6000A128A11C7
:0803C80028250A128A11080021
:10040000FF1B0A2A83137F1883170008840A031925
:10041000FF0A080002308A000408840A82070034B8
:100420005034493443343134363446343834373434
:1004300037344134203477346934743468342034A8
:100440004E3445344F342D3436344D342034473413
:10045000503453340D340A34003457346134693421
:10046000743469346E346734203466346F347234D3
:100470002034473450345334203464346134743479
:1004800061342E342E342E340D340A340D340A34B3
:1004900000340D340A344734503453342034433458
:1004A0006F346F347234643469346E34613474344C
:1004B00065342034523465346134643465347234C4
:1004C0000D340A3400344734503453342034433428
:1004D0006F346F347234643469346E34613474341C
:1004E000653473343A340D340A3400344C346F3488
:1004F0006E346734693474347534643465343A3432
:10050000203400344C3461347434693474347534B8
:10051000643465343A34203400342434473450345D
:100520004734473441340034B03420340034273465
:10053000203400342C3400342E340034831603135A
:100540000810881083120313081088100A128A11E9
:1005500034240A128A113A30F5008030F6000A126B
:100560008A1128250A128A110130F5008030F60020
:100570000A128A1128250A128A111E30F5008030CD
:10058000F6000A128A1128250A128A11780803191E
:10059000CA2ACB2AE22A0A128A112A200A128A11AE
:1005A000F801F901903083120313C2000030C30038
:1005B000C4005230C5000030C6000A128A117225EC
:1005C0000A128A11013083120313A0070318A10A2B
:1005D0000030A10707302102D03003192002031C8C
:1005E000F22AF32A052B0130880682308312031386
:1005F000D400DD30D300D30BFB2AD40BFB2A01300F
:10060000831203138806A001A1010730831203138C
:10061000D4007C30D300D30B0B2BD40B0B2B00005E
:10062000C62A0A128A110E288312031349080319D5
:100630001A2B1B2B7E2B4908F4000030031D803041
:10064000F5000A128A114E250A128A1175088312C2
:100650000313CF007408CE006A2B4708C200480875
:10066000C3004908C4004F08C6004E08C5000A125E
:100670008A1181230A128A11831203134208430448
:10068000031D432B442B452B802B0130CA004A0805
:100690004707C2004808CB000318CB0ACA1BCB038C
:1006A0004B08C300490884000A128A110A220A1260
:1006B0008A11CC00CD014C08C4004D08C5000A12B7
:1006C0008A11D7240A128A11831203134208C70021
:1006D0004308C8004708480403196F2B702B7E2B72
:1006E0004808FF00470884000A128A1100220A12F3
:1006F0008A11003A031D7D2B7E2B2D2BC701C801CB
:100700000800013083120313C5020030031CC60326
:10071000C602450A031D902B460A031D902B912B00
:10072000A02BC201C301EC2B0130C2070318C30A7E
:100730000130C4070130C5020030031CC603C602E5
:100740004308FF00420884000A128A1100220A129C
:100750008A11003A0319AD2BAE2BD62B4408840026
:100760000A128A110A220A128A11003A0319B92BB5
:10077000BA2BD62B450846040319BF2BC02BD62B0A
:10078000440884000A128A110A220A128A11F4000B
:100790004308FF00420884000A128A1100220A124C
:1007A0008A1174060319D52BD62B942B4308FF000E
:1007B000420884000A128A1100220A128A11F400E7
:1007C000440884000A128A110A220A128A11740249
:1007D000C200C301031CC3030800831203134C08A7
:1007E000031DF32BF42BFD2B7708CC004C08031DC5
:1007F000FA2BFB2BFD2B0030332C4C08C6004D0888
:10080000C7000A128A116B240A128A118312031379
:100810004608CC074C08840083170008031D112CE0
:10082000122C152CF7010030332C4C08C6004D0853
:10083000C7000A128A11A1240A128A118312031313
:1008400046084C07F700770884008317000803194F
:100850002A2C2B2C312C7708840080010130F707DB
:10086000322CF7014C08080083160313871707136F
:10087000813099001815181283120313981718164F
:100880008316031318138312031318138316031309
:1008900098168C160B178B1783120313981F512C65
:1008A000522C682C181E552C562C682C081403301A
:1008B000F6008A30F5005530F400F40B5D2CF50B92
:1008C0005D2CF60B5D2C642C8312031308106A2C2C
:1008D0008814692C080083120313CA01CB01782CF9
:1008E0000130C6070130CA070318CB0A0030CB0716
:1008F000460884008317000803197F2C802C9C2C49
:100900004708C2000030031D8030C3004608840041
:100910000008C800C9014808C4004908C5000A12F7
:100920008A11D7240A128A1183120313420843043E
:10093000031D9B2C9C2C702C4B08C7004A08C6003A
:10094000080083120313CA01CB01AE2C0130C60785
:100950000130CA070318CB0A0030CB0746088400D1
:10096000831700080319B52CB62CD22C4708C200F7
:100970000030031D8030C300460884000008C80012
:10098000C9014808C4004908C5000A128A11D724C1
:100990000A128A1183120313420843040319D12C4B
:1009A000D22CA62C4B08C7004A08C60008008312A8
:1009B00003134308FF00420884000A128A11002230
:1009C0000A128A114406031DE62CE72CE82CFF2CA2
:1009D0004308F5004208F400C20A0319C30A750867
:1009E000FF00740884000A128A1100220A128A1178
:1009F000003A031DFC2CFD2CD72CC201C3010800BA
:100A0000831203138C1E052D062D1F2D1A08F300CB
:100A10005130790203180D2D0E2D1E2D7908903EB0
:100A200084007308831780000130F9070A307306C9
:100A3000031D1B2D1C2D1E2D0130F8008C12720879
:100A40008A0071088400700E8300FE0E7E0E09007D
:100A50003D2D7608FF00750884000A128A110022D5
:100A60000A128A110A128A11A1250A128A1101306A
:100A7000F5070318F60A0030F60776088312031309
:100A8000FF00750884000A128A1100220A128A11D6
:100A9000003A031D4C2D4D2D292D0800740883129A
:100AA0000313C2007508C3005B2D0130F40703185F
:100AB000F50A0030F5077508FF00740884000A1273
:100AC0008A1100220A128A11003A031D682D692D2D
:100AD000552D42087402F4004308031C430A7502B2
:100AE000F5000800831203134208F4007E2D7408F9
:100AF00084004308831780000130F4070130C502E9
:100B00000030031CC603C602450A031D8B2D460A8E
:100B1000031D8B2D8C2D772D08007408F6007508A9
:100B2000F50A840083170008FF007608F60A84009F
:100B30007F08831380000008031D9F2DA02D8F2D9B
:100B40000800F400831203130C1EA72DA82DA22D5C
:100B500074089900080064008001840A04060319DF
:060B600000340406AC2D78
:02400E00723FFF
:00000001FF
